:100000000C942E000C9437030C94A3030C940F044F
:100010000C947B040C94E7040C944B000C94BE0BE2
:100020000C944B000C946C0B0C9453050C94BF0572
:100030000C942B060C9497060C9403070C946F07F2
:100040000C94DB070C9447080C94B3080C941F091C
:100050000C948B090C94F7090C94630A11241FBEAD
:10006000CFEFD4E0DEBFCDBF11E0A0E0B1E0E2ED24
:10007000FEE102C005900D92A232B107D9F724E04B
:10008000A2E2B1E001C01D92AF37B207E1F70E94D2
:100090005F020C94670F0C940000CF92DF92EF92F6
:1000A000FF920F931F93FC0184819581009709F0C3
:1000B00082C086819781892B71F50F2EFAE0CF2EB1
:1000C000D12CF02D0F2EF7EEEF2EF0E0FF2EF02DBD
:1000D0008F0120E030E0A90160E070E0CB010E94D8
:1000E000730C6EC086819781892B79F50F2EF9E00C
:1000F000CF2ED12CF02D0F2EF7EEEF2EF0E0FF2EAD
:10010000F02D8F0120E030E0A90160E070E0CB012C
:100110000E94730C55C08681978118161906ACF49D
:100120000F2EF6E0CF2ED12CF02D0F2EF7EEEF2E66
:10013000F0E0FF2EF02D8F0120E030E0A90160E01B
:1001400070E0CB010E94730C3BC0808591850097C5
:10015000C9F481E090E0918780870F2EF6E0CF2EE2
:10016000D12CF02D0F2EF7EEEF2EF0E0FF2EF02D1C
:100170008F0120E030E0A90160E070E0CB010E9437
:10018000730C1EC00197E1F4118610860F2EF9E062
:10019000CF2ED12CF02D0F2EF7EEEF2EF0E0FF2E0C
:1001A000F02D8F0120E030E0A90160E070E0CB018C
:1001B0000E94730C05C0181619060CF493CFC5CF16
:1001C0001F910F91FF90EF90DF90CF900895CF9205
:1001D000DF92EF92FF920F931F93CF93C62FC62EFD
:1001E000D12C0F2EFDE4EF2EF2E0FF2EF02D8C012E
:1001F00020E030E0A90160E070E0CB010E94730CC8
:10020000C093C600CF911F910F91FF90EF90DF90A8
:10021000CF900895AF92BF92CF92DF92EF92FF926C
:100220000F931F93CF935C01C62FC62ED12C0F2E98
:10023000F6E5EF2EF2E0FF2EF02D8C0120E030E00D
:10024000A90160E070E0CB010E94730CC0FF17C0F1
:10025000F50184819581019695838483C12CD12CED
:100260000F2EFDE4EF2EF0E0FF2EF02D20E030E029
:10027000A90160E070E0CB010E94730C53C0C1FF84
:100280001BC0F50184819581181619061CF401978D
:1002900095838483C12CD12C0F2EFDE4EF2EF0E04A
:1002A000FF2EF02D850120E030E0A90160E070E034
:1002B000CB010E94730C36C0C2FF18C0F5018681C5
:1002C0009781019697838683C12CD12C0F2EFDE454
:1002D000EF2EF0E0FF2EF02D850120E030E0A901A7
:1002E00060E070E0CB010E94730C1CC0C3FF1AC019
:1002F000F50186819781181619061CF401979783DA
:100300008683C12CD12C0F2EFDE4EF2EF0E0FF2EC2
:10031000F02D850120E030E0A90160E070E0CB0124
:100320000E94730CCF911F910F91FF90EF90DF907F
:10033000CF90BF90AF900895CF93DF93CDB7DEB746
:1003400064970FB6F894DEBF0FBECDBF94E1EEE028
:10035000F1E0DE01119601900D929A95E1F7282FB8
:1003600030E0205331092A30310510F4F90104C07E
:100370008A3070F5E82FF0E0EE0FFF1FEC0FFD1F45
:1003800021813281CB0160FF02C05FE001C050EFEC
:100390000697F0F4CB0195958795A82F9CEE980FC2
:1003A00061707727422F4F70329522952F70232747
:1003B0003F7023276115710511F04295407FE92FA9
:1003C000F0E080818523842B80839B5FA913EACF93
:1003D00064960FB6F894DEBF0FBECDBFDF91CF910C
:1003E00008958F929F92AF92BF92CF92DF92EF9239
:1003F000FF92CF93DF934B015C01EA0124E630E0EA
:1004000040E050E00E94E50E0F2EFAE0CF2ED12CF6
:10041000E12CF12CF02DA70196010E94E50EBE0102
:1004200080E3820F0E949C012196C501B401A701BF
:1004300096010E94E50E862FBE01805D0E949C0100
:10044000DF91CF91FF90EF90DF90CF90BF90AF9072
:100450009F908F900895E1E6F0E080E8808310821D
:1004600080EC8093E40097EB9093E50097E0909305
:10047000E6009FE09093E7009DE0909381008CBBA5
:100480008DBB1092C50083E38093C40088E98093FC
:10049000C1008EE08093C2000895072E000C880BE7
:1004A000990B40E050E00E94F1010895072E000CE6
:1004B000880B990B44E050E00E94F10108950E94DE
:1004C0002B0248E064EC7EE080E091E00E94930E15
:1004D00040E050E06DE472E082E291E00E94AD0EF7
:1004E0000895CF93DF9300D000D0CDB7DEB78FE172
:1004F00092E02FEF32E0FC01709791838083409669
:1005000082179307C1F71092F0021092EF02EAE50A
:10051000F1E087E791E09183808384E991E0968F11
:10052000858FA1EBB1E0B3AFA2AF1D921C92FA830D
:10053000E983EBE5F3E0FC83EB8389819A810696FE
:100540000E94260F8B819C81E981FA81978B868B93
:10055000918F808F85E29EE0948F838F1582148225
:100560007D96FA83E983EB81FC81E05AFF4FFC839F
:10057000EB8389819A818E5C9140F9F6E2EFF1E09C
:10058000118210821582148213821282E1E6F0E059
:1005900080E880831082109285001092840084E0AD
:1005A0008093810081E080936F000F900F900F90F7
:1005B0000F90DF91CF910895CF93DF9300D0CDB707
:1005C000DEB79A8389838091060190910701069690
:1005D0000E94260F892B59F489819A8190930701F3
:1005E0008093060161E070E006960E94460F0F902E
:1005F0000F90DF91CF9108950F931F93CF93DF93C7
:10060000C0910801D0910901AA81BB81E091340118
:10061000F0913501309731F180910A0190910B01F1
:10062000009701F1109779F04681578160857185B7
:1006300016960D911D912D913C911997401B510BD0
:10064000620B730B7AF4FC012081318130930B0132
:1006500020930A01D183C0839093090180930801FC
:100660000E94DC02DF91CF911F910F9108951F929C
:100670000F920FB60F9211242F933F934F935F93D6
:100680006F937F938F939F93AF93BF93EF93FF935A
:1006900020912C0130912D014091840050918500D2
:1006A000C901032E000CAA0BBB0BDC01992788277C
:1006B00060E070E0842B952BA62BB72B80932E0146
:1006C00090932F01A0933001B0933101B09B1BC0D8
:1006D0004091840050918500C9010196092E000CBB
:1006E000AA0BBB0BDC019927882760E070E0842B04
:1006F000952BA62BB72B80932E0190932F01A093BF
:100700003001B0933101E091CE01F091CF013097EB
:1007100039F060E070E080913601909137010995E1
:100720000E94FC02FF91EF91BF91AF919F918F9139
:100730007F916F915F914F913F912F910F900FBEDD
:100740000F901F9018951F920F920FB60F921124C1
:100750002F933F934F935F936F937F938F939F93C9
:10076000AF93BF93EF93FF9320912C0130912D0114
:100770004091840050918500C901032E000CAA0B02
:10078000BB0BDC019927882760E070E0842B952B58
:10079000A62BB72B80932E0190932F01A0933001AD
:1007A000B0933101B09B1BC04091840050918500F3
:1007B000C9010196092E000CAA0BBB0BDC0199277D
:1007C000882760E070E0842B952BA62BB72B8093B5
:1007D0002E0190932F01A0933001B0933101E0914D
:1007E000D001F091D101309739F061E070E0809153
:1007F00038019091390109950E94FC02FF91EF9117
:10080000BF91AF919F918F917F916F915F914F9128
:100810003F912F910F900FBE0F901F9018951F9230
:100820000F920FB60F9211242F933F934F935F9324
:100830006F937F938F939F93AF93BF93EF93FF93A8
:1008400020912C0130912D01409184005091850020
:10085000C901032E000CAA0BBB0BDC0199278827CA
:1008600060E070E0842B952BA62BB72B80932E0194
:1008700090932F01A0933001B0933101B09B1BC026
:100880004091840050918500C9010196092E000C09
:10089000AA0BBB0BDC019927882760E070E0842B52
:1008A000952BA62BB72B80932E0190932F01A0930D
:1008B0003001B0933101E091D201F091D301309732
:1008C00039F062E070E080913A0190913B01099526
:1008D0000E94FC02FF91EF91BF91AF919F918F9188
:1008E0007F916F915F914F913F912F910F900FBE2C
:1008F0000F901F9018951F920F920FB60F92112410
:100900002F933F934F935F936F937F938F939F9317
:10091000AF93BF93EF93FF9320912C0130912D0162
:100920004091840050918500C901032E000CAA0B50
:10093000BB0BDC019927882760E070E0842B952BA6
:10094000A62BB72B80932E0190932F01A0933001FB
:10095000B0933101B09B1BC0409184005091850041
:10096000C9010196092E000CAA0BBB0BDC019927CB
:10097000882760E070E0842B952BA62BB72B809303
:100980002E0190932F01A0933001B0933101E0919B
:10099000D401F091D501309739F063E070E0809197
:1009A0003C0190913D0109950E94FC02FF91EF915D
:1009B000BF91AF919F918F917F916F915F914F9177
:1009C0003F912F910F900FBE0F901F9018951F927F
:1009D0000F920FB60F9211242F933F934F935F9373
:1009E0006F937F938F939F93AF93BF93EF93FF93F7
:1009F00020912C0130912D0140918400509185006F
:100A0000C901032E000CAA0BBB0BDC019927882718
:100A100060E070E0842B952BA62BB72B80932E01E2
:100A200090932F01A0933001B0933101B09B1BC074
:100A30004091840050918500C9010196092E000C57
:100A4000AA0BBB0BDC019927882760E070E0842BA0
:100A5000952BA62BB72B80932E0190932F01A0935B
:100A60003001B0933101E091D601F091D701309778
:100A700039F064E070E080913E0190913F0109956A
:100A80000E94FC02FF91EF91BF91AF919F918F91D6
:100A90007F916F915F914F913F912F910F900FBE7A
:100AA0000F901F9018951F920F920FB60F9211245E
:100AB0002F933F934F935F936F937F938F939F9366
:100AC000AF93BF93EF93FF9320912C0130912D01B1
:100AD0004091840050918500C901032E000CAA0B9F
:100AE000BB0BDC019927882760E070E0842B952BF5
:100AF000A62BB72B80932E0190932F01A09330014A
:100B0000B0933101B09B1BC040918400509185008F
:100B1000C9010196092E000CAA0BBB0BDC01992719
:100B2000882760E070E0842B952BA62BB72B809351
:100B30002E0190932F01A0933001B0933101E091E9
:100B4000D801F091D901309739F065E070E08091DB
:100B500040019091410109950E94FC02FF91EF91A3
:100B6000BF91AF919F918F917F916F915F914F91C5
:100B70003F912F910F900FBE0F901F9018951F92CD
:100B80000F920FB60F9211242F933F934F935F93C1
:100B90006F937F938F939F93AF93BF93EF93FF9345
:100BA00020912C0130912D014091840050918500BD
:100BB000C901032E000CAA0BBB0BDC019927882767
:100BC00060E070E0842B952BA62BB72B80932E0131
:100BD00090932F01A0933001B0933101B09B1BC0C3
:100BE0004091840050918500C9010196092E000CA6
:100BF000AA0BBB0BDC019927882760E070E0842BEF
:100C0000952BA62BB72B80932E0190932F01A093A9
:100C10003001B0933101E091DA01F091DB013097BE
:100C200039F066E070E080914201909143010995AE
:100C30000E94FC02FF91EF91BF91AF919F918F9124
:100C40007F916F915F914F913F912F910F900FBEC8
:100C50000F901F9018951F920F920FB60F921124AC
:100C60002F933F934F935F936F937F938F939F93B4
:100C7000AF93BF93EF93FF9320912C0130912D01FF
:100C80004091840050918500C901032E000CAA0BED
:100C9000BB0BDC019927882760E070E0842B952B43
:100CA000A62BB72B80932E0190932F01A093300198
:100CB000B0933101B09B1BC04091840050918500DE
:100CC000C9010196092E000CAA0BBB0BDC01992768
:100CD000882760E070E0842B952BA62BB72B8093A0
:100CE0002E0190932F01A0933001B0933101E09138
:100CF000DC01F091DD01309739F067E070E0809120
:100D000044019091450109950E94FC02FF91EF91E9
:100D1000BF91AF919F918F917F916F915F914F9113
:100D20003F912F910F900FBE0F901F9018951F921B
:100D30000F920FB60F9211242F933F934F935F930F
:100D40006F937F938F939F93AF93BF93EF93FF9393
:100D500020912C0130912D0140918400509185000B
:100D6000C901032E000CAA0BBB0BDC0199278827B5
:100D700060E070E0842B952BA62BB72B80932E017F
:100D800090932F01A0933001B0933101B09B1BC011
:100D90004091840050918500C9010196092E000CF4
:100DA000AA0BBB0BDC019927882760E070E0842B3D
:100DB000952BA62BB72B80932E0190932F01A093F8
:100DC0003001B0933101E091DE01F091DF01309705
:100DD00039F068E070E080914601909147010995F3
:100DE0000E94FC02FF91EF91BF91AF919F918F9173
:100DF0007F916F915F914F913F912F910F900FBE17
:100E00000F901F9018951F920F920FB60F921124FA
:100E10002F933F934F935F936F937F938F939F9302
:100E2000AF93BF93EF93FF9320912C0130912D014D
:100E30004091840050918500C901032E000CAA0B3B
:100E4000BB0BDC019927882760E070E0842B952B91
:100E5000A62BB72B80932E0190932F01A0933001E6
:100E6000B0933101B09B1BC040918400509185002C
:100E7000C9010196092E000CAA0BBB0BDC019927B6
:100E8000882760E070E0842B952BA62BB72B8093EE
:100E90002E0190932F01A0933001B0933101E09186
:100EA000E001F091E101309739F069E070E0809164
:100EB00048019091490109950E94FC02FF91EF9130
:100EC000BF91AF919F918F917F916F915F914F9162
:100ED0003F912F910F900FBE0F901F9018951F926A
:100EE0000F920FB60F9211242F933F934F935F935E
:100EF0006F937F938F939F93AF93BF93EF93FF93E2
:100F000020912C0130912D01409184005091850059
:100F1000C901032E000CAA0BBB0BDC019927882703
:100F200060E070E0842B952BA62BB72B80932E01CD
:100F300090932F01A0933001B0933101B09B1BC05F
:100F40004091840050918500C9010196092E000C42
:100F5000AA0BBB0BDC019927882760E070E0842B8B
:100F6000952BA62BB72B80932E0190932F01A09346
:100F70003001B0933101E091E201F091E30130974B
:100F800039F06AE070E080914A0190914B01099537
:100F90000E94FC02FF91EF91BF91AF919F918F91C1
:100FA0007F916F915F914F913F912F910F900FBE65
:100FB0000F901F9018951F920F920FB60F92112449
:100FC0002F933F934F935F936F937F938F939F9351
:100FD000AF93BF93EF93FF9320912C0130912D019C
:100FE0004091840050918500C901032E000CAA0B8A
:100FF000BB0BDC019927882760E070E0842B952BE0
:10100000A62BB72B80932E0190932F01A093300134
:10101000B0933101B09B1BC040918400509185007A
:10102000C9010196092E000CAA0BBB0BDC01992704
:10103000882760E070E0842B952BA62BB72B80933C
:101040002E0190932F01A0933001B0933101E091D4
:10105000E401F091E501309739F06BE070E08091A8
:101060004C0190914D0109950E94FC02FF91EF9176
:10107000BF91AF919F918F917F916F915F914F91B0
:101080003F912F910F900FBE0F901F9018951F92B8
:101090000F920FB60F9211242F933F934F935F93AC
:1010A0006F937F938F939F93AF93BF93EF93FF9330
:1010B00020912C0130912D014091840050918500A8
:1010C000C901032E000CAA0BBB0BDC019927882752
:1010D00060E070E0842B952BA62BB72B80932E011C
:1010E00090932F01A0933001B0933101B09B1BC0AE
:1010F0004091840050918500C9010196092E000C91
:10110000AA0BBB0BDC019927882760E070E0842BD9
:10111000952BA62BB72B80932E0190932F01A09394
:101120003001B0933101E091E601F091E701309791
:1011300039F06CE070E080914E0190914F0109957B
:101140000E94FC02FF91EF91BF91AF919F918F910F
:101150007F916F915F914F913F912F910F900FBEB3
:101160000F901F9018951F920F920FB60F92112497
:101170002F933F934F935F936F937F938F939F939F
:10118000AF93BF93EF93FF9320912C0130912D01EA
:101190004091840050918500C901032E000CAA0BD8
:1011A000BB0BDC019927882760E070E0842B952B2E
:1011B000A62BB72B80932E0190932F01A093300183
:1011C000B0933101B09B1BC04091840050918500C9
:1011D000C9010196092E000CAA0BBB0BDC01992753
:1011E000882760E070E0842B952BA62BB72B80938B
:1011F0002E0190932F01A0933001B0933101E09123
:10120000E801F091E901309739F06DE070E08091EC
:1012100050019091510109950E94FC02FF91EF91BC
:10122000BF91AF919F918F917F916F915F914F91FE
:101230003F912F910F900FBE0F901F9018951F9206
:101240000F920FB60F9211242F933F934F935F93FA
:101250006F937F938F939F93AF93BF93EF93FF937E
:1012600020912C0130912D014091840050918500F6
:10127000C901032E000CAA0BBB0BDC0199278827A0
:1012800060E070E0842B952BA62BB72B80932E016A
:1012900090932F01A0933001B0933101B09B1BC0FC
:1012A0004091840050918500C9010196092E000CDF
:1012B000AA0BBB0BDC019927882760E070E0842B28
:1012C000952BA62BB72B80932E0190932F01A093E3
:1012D0003001B0933101E091EA01F091EB013097D8
:1012E00039F06EE070E080915201909153010995C0
:1012F0000E94FC02FF91EF91BF91AF919F918F915E
:101300007F916F915F914F913F912F910F900FBE01
:101310000F901F9018951F920F920FB60F921124E5
:101320002F933F934F935F936F937F938F939F93ED
:10133000AF93BF93EF93FF9320912C0130912D0138
:101340004091840050918500C901032E000CAA0B26
:10135000BB0BDC019927882760E070E0842B952B7C
:10136000A62BB72B80932E0190932F01A0933001D1
:10137000B0933101B09B1BC0409184005091850017
:10138000C9010196092E000CAA0BBB0BDC019927A1
:10139000882760E070E0842B952BA62BB72B8093D9
:1013A0002E0190932F01A0933001B0933101E09171
:1013B000EC01F091ED01309739F06FE070E0809131
:1013C00054019091550109950E94FC02FF91EF9103
:1013D000BF91AF919F918F917F916F915F914F914D
:1013E0003F912F910F900FBE0F901F9018951F9255
:1013F0000F920FB60F9211242F933F934F935F9349
:101400006F937F938F939F93AF93BF93EF93FF93CC
:1014100020912C0130912D01409184005091850044
:10142000C901032E000CAA0BBB0BDC0199278827EE
:1014300060E070E0842B952BA62BB72B80932E01B8
:1014400090932F01A0933001B0933101B09B1BC04A
:101450004091840050918500C9010196092E000C2D
:10146000AA0BBB0BDC019927882760E070E0842B76
:10147000952BA62BB72B80932E0190932F01A09331
:101480003001B0933101E091EE01F091EF0130971E
:1014900039F060E170E08091560190915701099513
:1014A0000E94FC02FF91EF91BF91AF919F918F91AC
:1014B0007F916F915F914F913F912F910F900FBE50
:1014C0000F901F9018951F920F920FB60F92112434
:1014D0002F933F934F935F936F937F938F939F933C
:1014E000AF93BF93EF93FF9320912C0130912D0187
:1014F0004091840050918500C901032E000CAA0B75
:10150000BB0BDC019927882760E070E0842B952BCA
:10151000A62BB72B80932E0190932F01A09330011F
:10152000B0933101B09B1BC0409184005091850065
:10153000C9010196092E000CAA0BBB0BDC019927EF
:10154000882760E070E0842B952BA62BB72B809327
:101550002E0190932F01A0933001B0933101E091BF
:10156000F001F091F101309739F061E170E0809184
:1015700058019091590109950E94FC02FF91EF9149
:10158000BF91AF919F918F917F916F915F914F919B
:101590003F912F910F900FBE0F901F901895EF92D3
:1015A000FF920F931F93CF93DF937B01EB01A881F1
:1015B000B981109761F1FC01068117812085318581
:1015C00016964D915D916D917C91199704171507B1
:1015D0002607370714F41BC0DF01ED91FC9111972A
:1015E000309749F04681578160857185041715074A
:1015F000260737078CF7EC01F983E883109721F46D
:10160000F7019183808307C08D939C9304C0EC0104
:10161000B983A883F5CFDF91CF911F910F91FF90F0
:10162000EF900895EF92FF920F931F93CF93DF9364
:101630007B01EB01A881B981109761F1FC01028166
:1016400013812481358112964D915D916D917C912C
:101650001597041715072607370714F41BC0DF0179
:10166000ED91FC911197309749F04281538164814B
:10167000758104171507260737078CF7EC01F983E6
:10168000E883109721F4F7019183808307C08D933D
:101690009C9304C0EC01B983A883F5CFDF91CF916F
:1016A0001F910F91FF90EF900895DC01ED91FC9157
:1016B0001197309759F48FEF8093EC008093ED00F1
:1016C0008093EE0081E083BF8895FDCF208131813A
:1016D0002D933C93CF0108951F920F920FB60F9256
:1016E00011242F933F934F935F936F937F938F9327
:1016F0009F93EF93FF9380912C0190912D01019680
:1017000090932D0180932C01E0913201F0913301EF
:10171000309701F142815381648175818617970763
:10172000C9F4CA012091840030918500421B530BFB
:101730004130510529F480918400909185000196F3
:101740009093890080938800EFE6F0E080818260CA
:10175000808305C0EFE6F0E080818D7F8083FF917C
:10176000EF919F918F917F916F915F914F913F91F9
:101770002F910F900FBE0F901F9018951F920F92F0
:101780000FB60F921124CF92DF92EF92FF922F9318
:101790003F934F935F936F937F938F939F93AF93F9
:1017A000BF93EF93FF93C0902C01D0902D01209117
:1017B000840030918500B0990FC00D2C000CEE080C
:1017C000FF08D601992788276901E12CF12CC82A46
:1017D000D92AEA2AFB2A15C020918400309185007D
:1017E0008FEFC81AD80A0D2C000CEE08FF08D6019E
:1017F000992788276901E12CF12CC82AD92AEA2ADD
:10180000FB2AE0913201F0913301309709F442C094
:1018100082819381A481B5818C199D09AE09BF098C
:10182000181619061A061B06ECF182E391E00E94D5
:10183000550B64E371E00E94CF0AE0913201F09110
:101840003301309739F182819381A481B5818C195C
:101850009D09AE09BF09181619061A061B062CF7B2
:1018600021C09C014091840050918500841B950B00
:10187000019731F420918400309185002F5F3F4F14
:101880003093890020938800EFE6F0E08081826049
:10189000808305C0EFE6F0E080818D7F80830E9429
:1018A000FC020CC082819381A481B58120912C011E
:1018B00030912D012A173B0769F7D3CFFF91EF91A4
:1018C000BF91AF919F918F917F916F915F914F9158
:1018D0003F912F91FF90EF90DF90CF900F900FBE30
:1018E0000F901F9018953F924F925F926F927F9248
:1018F0008F929F92AF92BF92CF92DF92EF92FF9220
:101900000F931F93CF93DF932B013C0149015A01A1
:101910008FB78078382EF8948CE091E00E94550BB8
:10192000EC011B870A87FD86EC86DF86CE86332096
:1019300061F0E0910601F09107010280F381E02D52
:1019400082819381A481B58108C080912E019091FC
:101950002F01A0913001B0913101480E591E6A1E2D
:101960007B1E4A825B826C827D82181419041A04E1
:101970001B0444F00F2E88248A94982CA82CFFE78F
:10198000BF2EF02D840C951CA61CB71C8E829F8246
:10199000A886B98680912C0190912D0140918400F8
:1019A00050918500B0990EC0092E000CAA0BBB0BFC
:1019B000DC019927882760E070E0842B952BA62B0B
:1019C000B72B13C020918400309185000196092E19
:1019D000000CAA0BBB0BDC0199278827A90160E04A
:1019E00070E0842B952BA62BB72B481A590A6A0A4C
:1019F0007B0A1414150416041704ACF562E371E0B5
:101A0000CE010E94120BE0913201F0913301309728
:101A100021F182819381A481B58120912C013091A3
:101A20002D012A173B07C9F49C0140918400509175
:101A30008500841B950B019731F42091840030912F
:101A400085002F5F3F4F3093890020938800EFE699
:101A5000F0E080818260808341C0EFE6F0E0808129
:101A60008D7F80833BC064E371E0CE010E94CF0A8A
:101A70003320B9F180910A0190910B01009781F117
:101A8000E0910801F0910901209134013091350174
:101A900002811381D90116964D915D916D917C91D2
:101AA0001997D80116960D911D912D913C9119977A
:101AB000401B510B620B730B9AF4DC012D913C918E
:101AC000119730930B0120930A01ED93FC939093AF
:101AD0000901809308010E94DC0202C0332009F052
:101AE0007894CE01DF91CF911F910F91FF90EF90ED
:101AF000DF90CF90BF90AF909F908F907F906F902E
:101B00005F904F903F900895AF92BF92CF92DF9237
:101B1000FF920F931F93CF93DF938C016B015A01B8
:101B20008FB78078F82EF894D801CD91DC9120976A
:101B300071F1AC81BD81109731F0CD91DC91AC8118
:101B4000BD811097D1F7E0910601F0910701CE1702
:101B5000DF0721F0FF2009F44DC007C0FF2009F482
:101B60004CC078948FEF9FEF66C0D80112968D918C
:101B70009C911397009709F446C0DC0115961C92BE
:101B80001E92149740C0789480E090E054C08091F9
:101B9000060190910701F80191838083FF2041F0B5
:101BA000D80112968D919C911397019709F0789422
:101BB000B501C801F6010995D82FC92F8FB7F89440
:101BC000D80111961C921E9212968D919C9113979A
:101BD0008230910548F013961C921E921297FC01D8
:101BE000158214820E94DC02FF2051F078948D2F20
:101BF0009C2F21C08FEF9FEF1EC08FEF9FEF1BC068
:101C00008D2F9C2F18C0D8011396FC93EE9312973A
:101C100015830483CE010E94DC02E0910601F0915D
:101C2000070182819381892B09F4ADCFCF01F8019F
:101C300091838083B5CFDF91CF911F910F91FF905A
:101C4000DF90CF90BF90AF90089500910601109162
:101C5000070184E391E00E94550BEC01D801139633
:101C60009C938E93129778944E855F856C857D85C5
:101C70008A859B850E94840D8FB7F89480910C0112
:101C800090910D0199838883D0930D01C0930C012D
:101C9000E0910801F091090100811181E8012A8198
:101CA0003B81A0913401B09135011097C1F021150D
:101CB000310559F216968D919D910D90BC91A02DF4
:101CC000E9014E815F8168857985841B950BA60BA0
:101CD000B70B181619061A061B060CF0B6CF109390
:101CE00009010093080180910A0190910B019183F1
:101CF0008083F0930B01E0930A01A0910801B09159
:101D000009011496ED91FC911597309741F0A0814F
:101D1000B1811496ED91FC9115973097C1F7CD01E3
:101D20000E94DC0292CF4231B8F42FB7F89450E011
:101D3000440F551FFA01EA5CFE4F91838083FA013C
:101D4000E253FE4F7183608341E050E0FC01538316
:101D5000428322230CF4789408958C01EB017A01DC
:101D60008FB7F8940E9471027894209721F0B70100
:101D7000C801FE0109958FB7F8940E94FC0278947F
:101D800081E083BF8895FDCFCF92DF92EF92FF92E3
:101D90000F931F93C090C600D12CFC0104811581C4
:101DA0000F2EFAE0EF2EF1E0FF2EF02D20E030E0D4
:101DB000A90160E070E0CB010E94730C1F910F91AC
:101DC000FF90EF90DF90CF900895052E97FB1EF4C3
:101DD00000940E94FC0E57FD07D00E94040F07FCE0
:101DE00003D04EF40C94FC0E5095409530952195FF
:101DF0003F4F4F4F5F4F0895909580957095619537
:101E00007F4F8F4F9F4F0895A1E21A2EAA1BBB1B35
:101E1000FD010DC0AA1FBB1FEE1FFF1FA217B307B6
:101E2000E407F50720F0A21BB30BE40BF50B661FCC
:101E3000771F881F991F1A9469F760957095809590
:101E400090959B01AC01BD01CF010895DC012D925D
:101E50003D924D925D926D927D928D929D92AD924A
:101E6000BD92CD92DD92ED92FD920D931D93CD9397
:101E7000DD93FF91EF918DB78D938EB78D938FB7D3
:101E80008D93ED93FD93882799270994DC01CB016D
:101E900081309105811D2D903D904D905D906D900C
:101EA0007D908D909D90AD90BD90CD90DD90ED900A
:101EB000FD900D911D91CD91DD91ED91FD910D90D4
:101EC000F894FEBF0FBEEDBFED91FD910994F8941B
:021ED000FFCF42
:101ED200000000002201F201F2015A010F02511525
:101EE2001001111E111B500B411B411F1101511FEB
:021EF200510B92
:00000001FF
